:1000000000308A00192800002E3084008313000875
:10001000031918280130F800F701F70B0D28F80B29
:100020000C284A30F700F70B13281628800B0A28F3
:100030000800FF30A00083161F149F141F159F1186
:1000400007309C0083131F3083053F308312A100CB
:100050000630A2005B30A3004F30A4006630A5003C
:100060006D30A6007D30A7000730A8007F30A900C2
:100070006F30AA008316091089100911003086001C
:100080000F308800003087008312A000AB01AC0164
:1000900083160814831208185B282B08093C031DDB
:1000A0005328FF30AB000230AD009630AE00042084
:1000B000AD0B5528AB0A83168814831288186B2859
:1000C000AB0803196B280230AD009630AE00042057
:1000D000AD0B6528AB0383160815831208197E281B
:1000E0002C08093C031D7628FF30AC000230AD001F
:1000F0009630AE000420AD0B7828AC0A8316881524
:10010000831288198E28AC0803198E280230AD009E
:100110009630AE000420AD0B8828AC0321302B07AD
:100120008400831380300007AD008316860183129C
:100130002D08860021302C078400831380300007AF
:10014000AD000030A0008316870183122D088700C0
:100150002C082B020318B5288316891083128914E2
:100160008316881383128813CA282B082C020318BD
:10017000C22883168910831289108316881383126C
:100180008817CA2883168910831289148316881346
:08019000831288174828630060
:02400E00313F40
:00000001FF
;PIC16F877A
;CRC=1ABE  CREATED="09-Tem-22 23:08"
